:0300000002008576
:03000B0002006F81
:03002B0002003898
:10002E00C0F9A4B0999282F88090C0D0C0E0C0828E
:10003E00C083C2CFB281E53104F531B4641A753193
:10004E0000E5302401D4F53090002E540F93F59135
:10005E00E530C4540F93F592D083D082D0E0D0D047
:10006E0032B280758CE4758AE0327A5A79FA78FA6F
:10007E00D8FED9FADAF62275817F75E800759500FB
:10008E00759E0075F800759A03D280758901C28C31
:10009E00C28D758CE4758AE0D28CD2A975C800C267
:1000AE00CAC2CF75CB9375CA7FD2CAD2AD75300096
:0C00BE00753100D2AFB2E812007880F972
:00000001FF
