:0300000002037D7B
:03000B00020219D5
:03001B000202BF1F
:03002B0002034984
:10002E0075E800759500759E001201C975E80112FC
:10003E0001C975E8021201C975E8041201C975E813
:10004E00081201C975E8101201C975E8201201C91C
:10005E0075E8401201C975E8801201C975E800758E
:10006E0095011201C97595021201C9759504120107
:10007E00C97595081201C97595101201C97595209B
:10008E001201C97595401201C97595801201C97585
:10009E009500759E011201C9759E021201C9759EC9
:1000AE0000222000047591082275918C22200104F3
:1000BE007591082275918C22E532B4000775CBFC40
:1000CE0075CA8A22B4010775CBFC75CA8A22B4029E
:1000DE000775CB0075CA0022B4030775CBFC75CA31
:1000EE008A22B4040775CBFC75CA8A22B40507753B
:1000FE00CB0075CA0022B4060775CBFC75CA8A22DE
:10010E00B4070775CBFC75CA8A22B4080775CB00F5
:10011E0075CA0022B4090775CBFB75CAA422B40AAE
:10012E000775CBFB75CAA422B40B0775CBFB75CA3A
:10013E00A422B40C0775CB0075CA0022B40D077546
:10014E00CBFC75CA1E22B40E0775CBFC75CA1E22D7
:10015E00B40F0775CB0075CA0022B4100775CBFC1F
:10016E0075CA1E22B4110775CBFC75CA1E22B412B5
:10017E000775CB0075CA0022B4130775CBFC75CA80
:10018E001E22B4140775CBFC75CA1E22B415077552
:10019E00CB0075CA0022B4160775CBFB75CA622256
:1001AE00B4170775CBFB75CA6222B4180775CBFB63
:1001BE0075CA622275CB0075CA00227A0279FA7866
:1001CE00FAD8FED9FADAF622C3E5009501600122CB
:1001DE00C3E5359538600122C3E5349537600122B9
:1001EE00C3E533953660012220EA0122753200758F
:1001FE003100D2CA12002E20FBFA30FBFDC2CA22F9
:10020E00C0F9A4B0999282F88090FF758C93758A8C
:10021E007FC0D0C0E0C083C082B28120E84F20E909
:10022E004C0531E531B4100F753100E5322401F57E
:10023E0032B41A037532000530E530B4642F7530D0
:10024E0000E5332401D4F533B46022753300E53470
:10025E002401D4F534B46015753400E5352401D489
:10026E00F535B41202B200B4130375350190020EC7
:10027E001200B0E533540F93F593E533C4540F9346
:10028E00F594E534540F93F58EE534C4540F93F57D
:10029E008FE535540F93F596E53520E40274A0C42E
:1002AE00540F93F5971200C6D082D083D0E0D0D0F1
:1002BE0032E5342401D4758D93758B7FC0D0C0E0A8
:1002CE00C083C0820530E530B4642F753000E5334D
:1002DE002401D4F533B46022753300E5342401D4FF
:1002EE00F534B46015753400E5352401D4F535B414
:1002FE001202B200B4130375350190020E1200BB48
:10030E00E536540F93F593E536C4540F93F594E503
:10031E0037540F93F58EE537C4540F93F58FE538A8
:10032E00540F93F596E53820E40274A0C4540F934D
:10033E00F597D082D083D0E0D0D032C2CFB2803207
:10034E00758911C28CC28D758C93758A7FD28CD2B1
:10035E00A9C28EC28F758D93758B7FD2ABD2BD75B0
:10036E00C800C2CAC2CF75CBFD75CA4AD2AD2275BE
:10037E00817F75E800759500759E0075F800759A79
:10038E0003D280753300753400753508C20075369A
:10039E0005753700753808C20112034ED2AF12012F
:1003AE00D620E80520E94680F520FB1530FBFDE55B
:1003BE00352401D4F535B41202B200B413037535E9
:1003CE000120FA1030FAFDE5342401D4F534B4607E
:1003DE000375340020F91030F9FDE5332401D4F50E
:1003EE0033B4600375330030E8B40203B71204422D
:1003FE0020FB1530FBFDE5382401D4F538B412028C
:10040E00B201B4130375380120FA1030FAFDE53746
:10041E002401D4F537B4600375370020F91030F994
:10042E00FDE5362401D4F536B4600375360030E9A7
:10043E00080203FEC28CD28E22C28ED28C0203AC74
:00000001FF
