:0300000002018476
:03000B00020039B7
:03001B000200C61A
:03002B000201507F
:10002E00C0F9A4B0999282F88090FF758C93758A6E
:10003E007FC0D0C0E0C083C082B28120E83920E901
:10004E00360530E530B4642F753000E5312401D427
:10005E00F531B46022753100E5322401D4F532B4A5
:10006E006015753200E5332401D4F533B41202B2B3
:10007E0000B4130375330190002E120249E531547A
:10008E000F93F593E531C4540F93F594E532540F65
:10009E0093F58EE532C4540F93F58FE533540F93D9
:1000AE00F596E53320E40274A0C4540F93F597D06F
:1000BE0082D083D0E0D0D032E5322401D4758D9336
:1000CE00758B7FC0D0C0E0C083C0820530E530B4F0
:1000DE00642F753000E5312401D4F531B4602275FA
:1000EE003100E5322401D4F532B46015753200E5E5
:1000FE00332401D4F533B41202B200B413037533B2
:10010E000190002E120254E534540F93F593E5340A
:10011E00C4540F93F594E535540F93F58EE535C41D
:10012E00540F93F58FE536540F93F596E53620E48C
:10013E000274A0C4540F93F597D082D083D0E0D030
:10014E00D032C2CFB28032758911C28CC28D758CFD
:10015E0093758A7FD28CD2A9C28EC28F758D9375FC
:10016E008B7FD2ABD2BD75C800C2CAC2CF75CBFDD4
:10017E0075CA4AD2AD2275817F75E80075950075F6
:10018E009E0075F800759A03D280753100753200A5
:10019E00753308C200753400753500753608C20116
:1001AE00120155D2AF12026B20E80520E94680F508
:1001BE0020FB1530FBFDE5332401D4F533B41202D8
:1001CE00B200B4130375330120FA1030FAFDE53294
:1001DE002401D4F532B4600375320020F91030F9E1
:1001EE00FDE5312401D4F531B4600375310030E8FA
:1001FE00B40201BE12025F20FB1530FBFDE5362472
:10020E0001D4F536B41202B201B4130375360120CF
:10021E00FA1030FAFDE5352401D4F535B4600375D6
:10022E00350020F91030F9FDE5342401D4F534B44D
:10023E00600375340030E91E02020520000475913A
:10024E00082275918C222001047591082275918CDB
:10025E0022C28CD28E22C28ED28C0201B3C3E50092
:10026E009501600122C3E5339536600122C3E53264
:10027E009535600122C3E5319534600122D2CA2042
:08028E00FBFD30FBFDC2CA229A
:00000001FF
