:0300000002019D5D
:03000B00020039B7
:03001B000200DF01
:03002B0002016966
:10002E00C0F9A4B0999282F88090FF758C93758A6E
:10003E007FC0D0C0E0C083C082B28120E84F20E9EB
:10004E004C0531E531B4140F753100E5322401F55C
:10005E0032B41A037532000530E530B4642F7530B2
:10006E0000E5332401D4F533B46022753300E53452
:10007E002401D4F534B46015753400E5352401D46B
:10008E00F535B41202B200B4130375350190002E8B
:10009E00120262E533540F93F593E533C4540F9374
:1000AE00F594E534540F93F58EE534C4540F93F55F
:1000BE008FE535540F93F596E53520E40274A0C410
:1000CE00540F93F59712033ED082D083D0E0D0D058
:1000DE0032E5342401D4758D93758B7FC0D0C0E08A
:1000EE00C083C0820530E530B4642F753000E5332F
:1000FE002401D4F533B46022753300E5342401D4E1
:10010E00F534B46015753400E5352401D4F535B4F5
:10011E001202B200B4130375350190002E12026D57
:10012E00E536540F93F593E536C4540F93F594E5E5
:10013E0037540F93F58EE537C4540F93F58FE5388A
:10014E00540F93F596E53820E40274A0C4540F932F
:10015E00F597D082D083D0E0D0D032C2CFB28032E9
:10016E00758911C28CC28D758C93758A7FD28CD293
:10017E00A9C28EC28F758D93758B7FD2ABD2BD7592
:10018E00C800C2CAC2CF75CBFD75CA4AD2AD2275A0
:10019E00817F75E800759500759E0075F800759A5B
:1001AE0003D280753300753400753508C20075367C
:1001BE0000753700753808C20112016ED2AF1202F7
:1001CE008420E80520E94680F520FB1530FBFDE58F
:1001DE00352401D4F535B41202B200B413037535CB
:1001EE000120FA1030FAFDE5342401D4F534B46060
:1001FE000375340020F91030F9FDE5332401D4F5F0
:10020E0033B4600375330030E8B40201D7120278BC
:10021E0020FB1530FBFDE5382401D4F538B412026D
:10022E00B201B4130375380120FA1030FAFDE53728
:10023E002401D4F537B4600375370020F91030F976
:10024E00FDE5362401D4F536B4600375360030E989
:10025E001E02021E2000047591082275918C222028
:10026E0001047591082275918C22C28CD28E22C205
:10027E008ED28C0201CCC3E5009501600122C3E54C
:10028E00359538600122C3E5349537600122C3E508
:10029E0033953660012220EA012275320075310055
:1002AE00D2CA1202BC20FBFA30FBFDC2CA2275E88C
:1002BE0000759500759E0012044175E80112044107
:1002CE0075E80212044175E80412044175E808123B
:1002DE00044175E81012044175E82012044175E8D6
:1002EE004012044175E88012044175E800759501CD
:1002FE00120441759502120441759504120441755C
:10030E00950812044175951012044175952012043A
:10031E004175954012044175958012044175950002
:10032E00759E01120441759E02120441759E0022B3
:10033E00E532B4000775CBFC75CA8A22B401077585
:10034E00CBFC75CA8A22B4020775CB0075CA00228F
:10035E00B4030775CBFC75CA8A22B4040775CBFCAF
:10036E0075CA8A22B4050775CB0075CA0022B40679
:10037E000775CBFC75CA8A22B4070775CBFC75CA04
:10038E008A22B4080775CB0075CA0022B409077516
:10039E00CBFB75CAA422B40A0775CBFB75CAA4227F
:1003AE00B40B0775CBFB75CAA422B40C0775CB0032
:1003BE0075CA0022B40D0775CBFC75CA1E22B40E89
:1003CE000775CBFC75CA1E22B40F0775CB0075CA14
:1003DE000022B4100775CBFC75CA1E22B411077526
:1003EE00CBFC75CA1E22B4120775CB0075CA00224B
:1003FE00B4130775CBFC75CA1E22B4140775CBFC5B
:10040E0075CA1E22B4150775CB0075CA0022B41624
:10041E000775CBFB75CA6222B4170775CBFB75CA7D
:10042E006222B4180775CBFB75CA622275CB0075B4
:10043E00CA00227A0279FA78FAD8FED9FADAF622C6
:00000001FF
