:030000000200B348
:03000B00020019D7
:10000E00C0F9A4B0999282F88090FF758C93758A8E
:10001E0081C0D0C0E0C083C08220E8360530E53014
:10002E00B4642F753000E5312401D4F531B460226B
:10003E00753100E5322401D4F532B4601575320005
:10004E00E5332401D4F533B41202B200B4130375B0
:10005E00330190000E120116E531540F93F593E51E
:10006E0031C4540F93F594E532540F93F58EE53267
:10007E00C4540F93F58FE533540F93F596E5332063
:10008E00E40274A0C4540F93F597D082D083D0E0CD
:10009E00D0D032758901C28CC28D758C93758A81D0
:1000AE00D28CD2A92275817F75E800759500759E58
:1000BE000075F800753159753259753311C2001239
:1000CE0000A1D2AF30E8FD20FB1530FBFDE5332457
:1000DE0001D4F533B41202B200B413037533012008
:1000EE00FA1030FAFDE5322401D4F532B46003750E
:1000FE00320020F91030F9FDE5312401D4F531B488
:10010E0060037531000200D220000475910822753B
:03011E00918C229F
:00000001FF
