:030000000202B445
:10000300C0E0C0D0C000E4F534F535F5367810E52E
:1000130031A2E7E53033F530E53133F531E53435F9
:1000230034D4F534E5353535D4F535E5363536D4C0
:10003300F536D8DBD000D0D0D0E02213C0D030E7E3
:100043000224D030E30224FDD0D022C0E0C0D0C0CF
:1000530000C034C035C0367810C3E53612003EF513
:1000630036E53512003EF535E53412003EF534E54C
:100073003113F531E53013F530D8DED036D035D035
:1000830034D000D0D0D0E022C0E0C0D0E53025325B
:10009300F530E5313533F531D0D0D0E022C0E0C0C2
:1000A300D0C3E5309532F530E5319533F531D0D015
:1000B300D0E022C0E0C0D0C3E5309532E5319533BE
:1000C3009200D0D0D0E022C0E0C0D0C3E53295305A
:1000D300E53395319200D0D0D0E022C0E0C0D0C249
:1000E30000C3E53295307008E53395317002D200D4
:1000F300D0D0D0E0221200DE2000030200CA221278
:1001030000DE2000030200B622C0E0C0F0C0D0C071
:1001130000C001E5308532F0A4F8A9F0E53185325D
:10012300F0A429F9E435F0FAE5308533F0A429F990
:1001330089318830D001D000D0D0D0F0D0E022C0B7
:10014300E0C0F0C0D0C000C001C002C00378807A14
:10015300087B00EB48FBF5F0A4C39530F9E5F09577
:100163003149600D50028004E8F45BFBE803F8DAE0
:10017300E28B30753100D003D002D001D000D0D053
:10018300D0F0D0E022C0E0C0D0C000C001C0027AED
:1001930010E4F8F9C3E53033F530E53133F531E8F0
:1001A30033F8E933F9C3E89532E99533400BE89521
:1001B30032F8E99533F9433001DAD9D002D001D0CE
:1001C30000D0D0D0E02285303285313322E530C5EE
:1001D30032F530E531C533F53122C0F9A4B0999237
:1001E30082F880908883C6A1868E9001DDE5345421
:1001F3000F93F591E534C4540F93F592E535540FFD
:1002030093F593E535C4540F93F594E536540F9362
:10021300F58E227804C3E53433F534E53533F5350B
:10022300E53633F536D8EEEF4534F534E536540F7D
:10023300F536227A5A79FA78FAD8FED9FADAF6221A
:10024300759140759240759340759440758E4075D5
:10025300340075350075360022781E794A7AFADA49
:10026300FED9FAD8F622ACE8AD95EC4D602912021E
:100273005CE5E8C39C7020E595C39D701A7F10C3AD
:10028300EC33FCED33FD4004DFF5800B1FD3E5E8D1
:1002930070FCE59570FC22C32230F9FD2230FAFD93
:1002A3002230FBFD22E59E20E0FB22E59E20E1FBC0
:1002B3002275817FE4F5E8F595F59EF5F8F534F5BB
:1002C30035F5361201ED759779759600758F1275B0
:1002D3008E787594797593797592247591121202BB
:1002E3003612023612023612023675977F75967FE2
:1002F300758F7F758E4075944075934075924075E8
:10030300914030FA3730FB52E59E20E06C20E16DDE
:1003130012026950EDEFC3940A50E712021612015C
:10032300ED02030512026950FBEFC3940A50F51264
:1003330002161201ED20F9EC30F93A221202A01252
:10034300004E1202431201C91203271201D01200F8
:10035300A01200031201ED0203051202A412004EC3
:100363001202431201C912032712008B1200031257
:1003730001ED0203051203B92212039B221202AEFE
:1003830012004E1202431201C912032712010C126A
:1003930000031201ED0203051202A812004E12021D
:1003A300431201C91203271201D01201881200035C
:1003B3001201ED02030512029C12004E12024322A7
:00000001FF
