:10000000020018C2B7C2B6D2B57590FFD2B7E5905C
:1000100020E7F0C2B7C2B522759BFF759DE01200C4
:100020005D120082744812008F744512008F744C68
:1000300012008F744C12008F744F12008F742012B4
:10004000008F745712008F744F12008F7452120079
:100050008F744C12008F744412008F80C7C2B67523
:100060009038D2B7C2B7120003C2B675900ED2B79D
:10007000C2B7120003C2B6759006D2B7C2B712005B
:100080000322C2B6759001D2B7C2B712000322D2C2
:0B009000B6F590D2B7C2B712000322F1
:00000001FF
