:03000000020414E3
:03000B00020213DB
:03002B0002038449
:10002E007533827534007536003001048E358002CA
:10003E008F351200D112009612006D12004D22C3A0
:10004E00300100EE8001EF94EE6005C2CAC20022BC
:10005E0030000122753200753100D2CAD2002290D2
:10006E000400E537540F93F593E537C4540F93F519
:10007E0094E538540F93F58EE538C4540F93F58FED
:10008E00E539540F93F59622C0E0C0D0C000E4F5D8
:10009E0037F538F5397810E534A2E7E53333F53323
:1000AE00E53433F534E5373537D4F537E5383538BB
:1000BE00D4F538E5393539D4F539D8DBD000D0D080
:1000CE00D0E022C0E0C0F0C0D0C000C001E5338552
:1000DE0035F0A4F8A9F0E5348535F0A429F9E43516
:1000EE00F0FAE5338536F0A429F989348833D00146
:1000FE00D000D0D0D0F0D0E022E532B4000775CBDE
:10010E00FC75CA8A22B4010775CBFC75CA8A22B463
:10011E00020775CB0075CA0022B4030775CBFC75B8
:10012E00CA8A22B4040775CBFC75CA8A22B40507A5
:10013E0075CB0075CA0022B4060775CBFC75CA8A4A
:10014E0022B4070775CBFC75CA8A22B4080775CB93
:10015E000075CA0022B4090775CBFB75CAA422B478
:10016E000A0775CBFB75CAA422B40B0775CBFB75BA
:10017E00CAA422B40C0775CB0075CA0022B40D07B1
:10018E0075CBFC75CA1E22B40E0775CBFC75CA1E44
:10019E0022B40F0775CB0075CA0022B4100775CBB9
:1001AE00FC75CA1E22B4110775CBFC75CA1E22B48B
:1001BE00120775CB0075CA0022B4130775CBFC75F8
:1001CE00CA1E22B4140775CBFC75CA1E22B41507BD
:1001DE0075CB0075CA0022B4160775CBFB75CA62C3
:1001EE0022B4170775CBFB75CA6222B4180775CBFC
:0C01FE00FB75CA622275CB0075CA002296
:10020A000202DB020383020378C0D0C0E0C083C0CD
:10021A0082758C93758A7F0531E531B4100E75317C
:10022A0000E53204F532B41A03753200B28120E8CF
:10023A00CFC20174801203B774431203CA744812FE
:10024A0003CA74411203CA744E1203CA744E1203CB
:10025A00CA74451203CA744C1203CA74201203CA20
:10026A0074311203CA742F1203CA74471203CA7470
:10027A00521203CA74451203CA74451203CA744E51
:10028A001203CA74C01203B774561203CA74311225
:10029A0003CA74201203CA74491203CA745312039C
:1002AA00CA74201203CA74521203CA744F1203CAC0
:1002BA0074551203CA74471203CA74481203CA74E3
:1002CA004C1203CA74591203CA743A1203CA0203BB
:1002DA0078D20174801203B774431203CA744812A5
:1002EA0003CA74411203CA744E1203CA744E12032B
:1002FA00CA74451203CA744C1203CA74201203CA80
:10030A0074321203CA742F1203CA74521203CA74C3
:10031A00451203CA74441203CA74201203CA742011
:10032A001203CA74C01203B774561203CA74321283
:10033A0003CA74201203CA74491203CA74531203FB
:10034A00CA74201203CA74521203CA744F1203CA1F
:10035A0074551203CA74471203CA74481203CA7442
:10036A004C1203CA74591203CA743A1203CA12010C
:10037A0007D082D083D0E0D0D032C2CFB2803275DB
:10038A008911C28CC28D758C93758A7FD28CD2A941
:10039A00D2BD75C800C2CAC2CF75CB9375CA7FD207
:1003AA00AD227895000000000000D8F822F5D9C2E5
:1003BA00DA0000D2D9000000000000C2D90203AC62
:1003CA00F5D9D2DA0000D2D9000000000000C2D963
:1003DA000203ACD2DBC2D91203AC75DAFFC2D874FD
:1003EA000C1203B774381203B774011203B77928D1
:1003FA001203ACD9FB22C0F9A4B0999282F880907A
:10040A00FF790A786FD8FED9FA2275817F75E800DC
:10041A00759500759E0075F800759DFF759A03D253
:10042A00801203891203DDD2AF12044E85B0E8129E
:10043A00040BAEB01204A285B0F812040BAFB012CE
:10044A00002E80E575B000D2B712040B30A002C2AC
:10045A00B7D2B612040B30A002C2B6D2B512040B40
:10046A0030A002C2B5D2B412040B30A002C2B4D278
:10047A00B312040B30A002C2B3D2B212040B30A0E2
:10048A0002C2B2D2B112040B30A002C2B1D2B0126F
:10049A00040B30A002C2B02275B00012040BD2B70E
:1004AA0012040B30A102C2B7D2B612040B30A10259
:1004BA00C2B6D2B512040B30A102C2B5D2B412042C
:1004CA000B30A102C2B4D2B312040B30A102C2B3E0
:1004DA00D2B212040B30A102C2B2D2B112040B3052
:0F04EA00A102C2B1D2B012040B30A102C2B022E3
:00000001FF
