:0300000002000CEF
:10000300790A786FD8FED9FA2275817F75E8007571
:100013009500759E0075F800759DFF12003285B03E
:10002300E812000312008685B0F812000380EC7515
:10003300B000D2B712000330A002C2B7D2B612008A
:100043000330A002C2B6D2B512000330A002C2B57B
:10005300D2B412000330A002C2B4D2B312000330F0
:10006300A002C2B3D2B212000330A002C2B2D2B114
:1000730012000330A002C2B1D2B012000330A002BA
:10008300C2B02275B000120003D2B712000330A130
:1000930002C2B7D2B612000330A102C2B6D2B51261
:1000A300000330A102C2B5D2B412000330A102C2D0
:1000B300B4D2B312000330A102C2B3D2B21200030E
:1000C30030A102C2B2D2B112000330A102C2B1D236
:0A00D300B012000330A102C2B022F7
:00000001FF
