:0300000002007883
:10000300C0F9A4B0999282F88090C0E0C0D0C0003B
:10001300E4F533F534F535F5367818E532A2E7E53E
:100023003033F530E53133F531E53233F532E5334D
:100033003533D4F533E5343534D4F534E535353556
:10004300D4F535E5363536D4F536D8CFD000D0D013
:10005300D0E0227A5979F978FA208D08D8FBD9F7BC
:1000630000DAF2220532C28D80EFC28C74F055891A
:100073004405F5892275817FE4F5E8F595F59EF54C
:10008300F8F533F534F535F5361200B8E4F530F507
:1000930031F532D2B412006DC28C758A00758C00B2
:1000A300D28C120056C28C858A30858C3112000D99
:1000B3001200B880D7900003E533540F93F591E510
:1000C30033C4540F93F592E534540F93F593E53409
:1000D300C4540F93F594E535540F93F58EE535C469
:1000E300540F93F58FE536540F93F5961200F322D0
:1000F300E536540F703075967FE53554F0702775EB
:100103008F7FE535540F701E758E7FE53454F07084
:100113001575947FE534540F700C75937FE5335454
:07012300F0700375927F22CA
:00000001FF
