:0300000002007784
:10000300C0F9A4B0999282F88090C0E0C0D0C0003B
:10001300E4F533F534F535F5367818E532A2E7E53E
:100023003033F530E53133F531E53233F532E5334D
:100033003533D4F533E5343534D4F534E535353556
:10004300D4F535E5363536D4F536D8CFD000D0D013
:10005300D0E0227A5879FA78FA208D07D8FBD9F7BD
:10006300DAF3220532C28D80F0C28C74F0558944D4
:1000730005F5892275817FE4F5E8F595F59EF5F898
:10008300F533F534F535F5361200B6F530F531F5BF
:1000930032D2B412006CC28C758A00758C00D28C7B
:1000A300120056C28C858A30858C3112000D1200E5
:1000B300B680D8900003E533540F93F591E533C42C
:1000C300540F93F592E534540F93F593E534C454E8
:1000D3000F93F594E535540F93F58EE535C4540F1E
:1000E30093F58FE536540F93F5961200F122E5361A
:1000F300540F703075967FE53554F07027758F7FF8
:10010300E535540F701E758E7FE53454F070157508
:10011300947FE534540F700C75937FE53354F0707E
:050123000375927F222C
:00000001FF
